S00C0000446173682E7372656398
S113000075C20000A3C20000A1C200009FC200008C
S11300109DC200009BC2000099C2000097C200006C
S113002095C2000093C2000091C200008FC200007C
S11300308DC200008BC2000089C2000087C200008C
S113004085C2000083C2000081C200007FC200009C
S11300507DC200007BC2000079C200006CC60000B3
S113006075C20000A4C30000DEC300006FC200001C
S11300706DC200006BC2000069C2000067C20000CC
S113008065C2000063C2000061C200005FC20000DC
S11300905DC200005BC2000059C2000057C20000EC
S11300A055C2000053C2000051C200004FC20000FC
S11300B04DC200004BC2000049C2000047C200000C
S11300C045C2000043C2000041C200003FC200001C
S11300D03DC200003BC2000039C2000037C200002C
S11300E035C2000005A84CCDB2D44EB93836A902A9
S11300F00C50B9918688083CA6AAAA2ABE00000022
S1130100803F00000000000000000000000000002C
S113011000000000000000000000000000000000DB
S113012000000000000000000000000000000000CB
S113013000000000000000000000000000000000BB
S113014000000000000000000000000000000000AB
S1130150000000000000000000000000000000009B
S1130160000000000000000000000000000000008B
S1130170000000000000000000000000000000007B
S1130180000000000000000000000000000000006B
S1130190000000000000000000000000000000005B
S11301A0000000000000F003F0030C0C0C0C033002
S11301B003300000000000000000033003300C0C8A
S11301C00C0CF003F0030000000030033003C00007
S11301D0C000FC0FFC0FC000C00030033003C0009F
S11301E0C000C000C000FC0FFC0FC000C000C00075
S11301F0C0000000000000330033000F000F0000B7
S1130200000000000000C000C000C000C000C0002A
S1130210C000C000C000C000C00000000000003CDE
S1130220003C003C003C0000000000000000000016
S113023000000000000000000000000000000000BA
S11302400000FC0FFC0F03330333C330C3303330DF
S11302503330FC0FFC0F000000000C300C30FF3F6B
S1130260FF3F00300030000000000C300C30033C35
S1130270033C03330333C330C3303C303C30030C02
S1130280030C0330033033303330CF30CF30030F1F
S113029003068003C003300330030C030C03FF3F49
S11302A0FF3F000300033F0C3F0C33303330333047
S11302B0333033303330C30FC30FF00FF00FCC3073
S11302C0CC30C330C330C330C330000F000F030041
S11302D00300033F033FC300C300330033000F0098
S11302E00F003C0F3C0FC330C330C330C330C330A6
S11302F0C3303C0F3C0F18003C00C330C330C33044
S1130300C330C30CC30CFC03F80100000000000060
S1130310005F00000007000700147F147F14242AE4
S11303207F2A1223130864623649552250000503BC
S11303300000001C2241000041221C0014083E0859
S11303401408083E0808005030000008080808088F
S1130350006060000020100804023E5149453E0040
S1130360427F400042615149462141454B311814B6
S1130370127F1027454545393C4A494930017109E6
S113038005033649494936064949291E00363600CF
S113039000005636000008142241001414141414EA
S11303A000412214080201510906324979413E7E76
S11303B01111117E7F494949363E414141227F4115
S11303C041221C7F494949417F090909013E4149AC
S11303D0497A7F0808087F00417F41002040413F5F
S11303E0017F081422417F404040407F020C027F7D
S11303F07F0408107F3E4141413E7F090909063EC2
S11304004151215E7F091929464649494931010173
S11304107F01013F4040403F1F2040201F3F4038A4
S1130420403F631408146307087008076151494585
S113043043007F41410002040810200041417F0035
S11304400402010204404040404000010204002034
S1130450545454787F4844443838444444203844FD
S113046044487F3854545418087E0901020C5252EF
S1130470523E7F0804047800447D40002040443DFF
S1130480007F1028440000417F40007C0418047859
S11304907C0804047838444444387C141414080850
S11304A01414187C7C080404084854545420043F51
S11304B04440203C4040207C1C2040201C3C4030D8
S11304C0403C44281028440C5050503C4464544C44
S11304D044000836410000007F0000004136080057
S11304E0100808100878464146783C0411241FBEC1
S11304F0CFEFD1E2DEBFCDBF00E00CBF12E0A0E041
S1130500B2E0E4E7FAE200E00BBF02C007900D920C
S1130510A839B107D9F725E0A8E9B2E001C01D92D6
S1130520A833B207E1F712E0C6E7D2E000E006C064
S113053021970109802FFE010E943C12C537D10783
S113054080E00807A9F732D70C94381559CDFC017F
S1130550918D228D892F90E0805C9F4F821B9109A1
S11305608F7399270895FC01918D828D981731F02E
S1130570828DE80FF11D858D90E008958FEF9FEF38
S11305800895FC01918D828D981761F0828DDF01B1
S1130590A80FB11D5D968C91928D9F5F9F73928F72
S11305A090E008958FEF9FEF0895FC01238D348D23
S11305B0231738F08FE390E0821B9109830F911D7C
S11305C00895832F90E0821B910901970895FC01FF
S11305D0848DDF01A80FB11DA35ABF4F8C91248DC8
S11305E030E02F5F3F4F2F733078332334F42150A2
S11305F03109206C3F6F2F5F3F4F248FA689B78945
S11306008C93A089B1898C9180648C93938D848D13
S1130610981306C00288F389E02D80818F7D808342
S11306200895CF93DF93EC01888D8823D1F0EA8974
S1130630FB89808185FD05C0A889B9898C9186FDD7
S113064010C00FB607FCF5CF808185FFF2CF03C041
S1130650CE01BDDFECCFA889B9898C9185FFE9CFA4
S1130660F7CFDF91CF9108950F931F93CF93DF932B
S1130670EC0181E0888F9B8D8C8D981322C0E889D2
S1130680F989808185FD2EC01CC09C8D19130BC077
S11306900FB607FCFACFE889F989808185FFF5CF89
S11306A0CE0195DFF2CF8B8DFE01E80FF11DE35AE9
S11306B0FF4F00831B8FEA89FB89808180628083DE
S11306C019C02B8D30E02F5F3F4F2F7330783323C9
S11306D034F421503109206C3F6F2F5F3F4F062FB8
S11306E0122FD3CFEE89FF896083E889F98980814D
S11306F08064808381E090E0DF91CF911F910F911E
S11307000895CF92DF92EF92FF921F93CF93DF93DE
S1130710EC016A017B01122F60E47BE48CE490E03D
S1130720A70196010E94FE11DA01C9010197A109EE
S1130730B109B695A795979587959C01E889F9899C
S113074082E08083211580E13807A8F0E889F989DF
S1130750108260EA75E286E290E0A70196010E94A9
S1130760FE11DA01C9010197A109B109B695A7954E
S1130770979587959C01EC85FD853083EE85FF85F3
S11307802083188EEC89FD891083EA89FB89808196
S113079088698083EA89FB8980818F7D8083DF91EA
S11307A0CF911F91FF90EF90DF90CF9008951F920B
S11307B00F920FB60F9211240BB60F922F938F93B3
S11307C09F93AF93BF93EF93FF93E091A802F091AF
S11307D0A902808182FD14C0E8E9F2E0A689B78904
S11307E02C91818D8F5F8F73928D891771F0DF014A
S11307F0E18DF0E0E856FD4F258F59968C9305C0A6
S1130800E091AE02F091AF028081FF91EF91BF9130
S1130810AF919F918F912F910F900BBE0F900FBEB0
S11308200F901F9018951F920F920FB60F921124DC
S11308300BB60F922F933F934F935F936F937F93D6
S11308408F939F93AF93BF93EF93FF9388E992E0C5
S1130850BEDEFF91EF91BF91AF919F918F917F91F8
S11308606F915F914F913F912F910F900BBE0F901D
S11308700FBE0F901F901895E8E9F2E013821282E0
S113088088EE93E0A0E0B0E084839583A683B783E9
S113089084E092E09183808385EC90E0958784875F
S11308A084EC90E09787868780EC90E0918B808B36
S11308B081EC90E0938B828B82EC90E0958B848B1F
S11308C086EC90E0978B868B118E128E138E148E8D
S11308D008954F925F926F927F928F929F92AF9200
S11308E0BF92CF92DF92EF92FF92CF93DF939C015E
S11308F0AAEDB2E00E9444122FEF33E040E050E052
S11309000E942012DA01C9018B5D9E4FAF4FBF4F89
S1130910BC0180E090E00E948A102BED3FE049EC9E
S113092050E40E94511120E030EC4FE754E40E945F
S1130930F10F6B017C012BED3FE049EC5FE30E947A
S1130940F10F0E945E10EB016430710511F4C0E0F8
S1130950D0E0C701B6010E94B4112B013C01C701CC
S1130960B6010E94EE0F4B015C0120E030EC4FE732
S113097054E4C301B2010E9451110E945E109B0114
S1130980772324F422273327261B370BC901330F7F
S1130990AA0BBB0BBC01CD01052E59E0660F771FD6
S11309A0881F991F5A95D1F7502D2FEF33E040E05F
S11309B050E00E94201269017A018FEFC80E81E095
S11309C0D81EE11CF11C20E030EC4FE754E4C501D3
S11309D0B4010E9451110E945E109B01772324F4FC
S11309E022273327261B370BC901330FAA0BBB0B56
S11309F0BC01CD01052E59E0660F771F881F991F92
S1130A005A95D1F7502D2FEF33E040E050E00E948B
S1130A102012BA01A90141505E4F6F4F7F4FC13080
S1130A20D105F1F038F0C230D10581F1239709F4F2
S1130A3044C059C0D0929900C0929800C094D094F8
S1130A40D0929B00C0929A005093890040938800F2
S1130A509A012095309530938B0020938A0043C0EF
S1130A60D0929900C0929800C094D094D0929B00E8
S1130A70C0929A00CA0180959095909389008093C2
S1130A80880050938B0040938A002DC0C601809546
S1130A9090959093990080939800D0929B00C09277
S1130AA09A00CA018095909590938900809388005C
S1130AB050938B0040938A0016C0C6018095909590
S1130AC09093990080939800D0929B00C0929A00D2
S1130AD050938900409388009A0120953095309373
S1130AE08B0020938A00DF91CF91FF90EF90DF90ED
S1130AF0CF90BF90AF909F908F907F906F905F90BA
S1130B004F9008954F925F926F927F928F929F922F
S1130B10AF92BF92CF92DF92EF92FF92CF93DF9387
S1130B209C01AAEDB2E00E9444122FEF33E040E0B2
S1130B3050E00E942012DA01C9018B5D9E4FAF4F35
S1130B40BF4FBC0180E090E00E948A102BED3FE093
S1130B5049EC50E40E94511120E030EC4FE754E49A
S1130B600E94F10F6B017C012BED3FE049EC5FE348
S1130B700E94F10F0E945E10EB016430710511F4C4
S1130B80C0E0D0E0C701B6010E94B4112B013C01C2
S1130B90C701B6010E94EE0F4B015C0120E030EC6E
S1130BA04FE754E4C301B2010E9451110E945E1048
S1130BB09B01772324F422273327261B370BC901F3
S1130BC0330FAA0BBB0BBC01CD01052E59E0660FF8
S1130BD0771F881F991F5A95D1F7502D2FEF33E0B7
S1130BE040E050E00E94201269017A018FEFC80EA4
S1130BF081E0D81EE11CF11C20E030EC4FE754E406
S1130C00C501B4010E9451110E945E109B0177231B
S1130C1024F422273327261B370BC901330FAA0BD1
S1130C20BB0BBC01CD01052E59E0660F771F881F51
S1130C30991F5A95D1F7502D2FEF33E040E050E043
S1130C400E942012BA01A90141505E4F6F4F7F4F9D
S1130C50C130D105F1F038F0C230D10581F12397CC
S1130C6009F444C059C0D0922901C0922801C0940B
S1130C70D094D0922B01C0922A015093A9004093A2
S1130C80A8009A01209530953093AB002093AA00D8
S1130C9043C0D0922901C0922801C094D094D0922C
S1130CA02B01C0922A01CA01809590959093A900C6
S1130CB08093A8005093AB004093AA002DC0C601B6
S1130CC0809590959093290180932801D0922B01CF
S1130CD0C0922A01CA01809590959093A9008093AF
S1130CE0A8005093AB004093AA0016C0C60180959B
S1130CF090959093290180932801D0922B01C09262
S1130D002A015093A9004093A8009A012095309598
S1130D103093AB002093AA00DF91CF91FF90EF9026
S1130D20DF90CF90BF90AF909F908F907F906F9007
S1130D305F904F9008951F920F920FB60F92112457
S1130D402F933F934F935F936F937F938F939F93CF
S1130D50AF93BF93409136035091370360913803AA
S1130D6070913903CA013091350326E6230F2D37DC
S1130D7018F029EE230F019620933503A0E0B0E08C
S1130D808093360390933703A0933803B0933903C9
S1130D9080913A0390913B03A0913C03B0913D03B1
S1130DA00196A11DB11D80933A0390933B03A09338
S1130DB03C03B0933D03BF91AF919F918F917F917D
S1130DC06F915F914F913F912F910F900FBE0F90B4
S1130DD01F901895AF92BF92CF92DF92EF92FF923D
S1130DE00F931F93CF93DF9388E992E0B0DB46978C
S1130DF00CF4D1C288E992E0C4DB8F3F09F0CBC286
S1130E0088E992E0BEDB843009F0C5C288E992E04B
S1130E10B8DB282F30E0AFEFB3E00E944412C12CBE
S1130E20D12C7601CA94A70196010E942012C9010F
S1130E3050DD88E992E0A5DB282F30E0AFEFB3E086
S1130E400E944412A70196010E942012C9015ADE91
S1130E5088E992E096DB282F30E0AFEFB3E00E9400
S1130E604412A70196010E9420123093AD002093F2
S1130E70AC0088E992E085DB99279F938F9382E108
S1130E8092E09F938F9311E01F931F920F2EF8E22D
S1130E90BF2EF02DBF921F920AE20F93CEE3D3E050
S1130EA0DF93CF9316D788E992E06BDB282F30E0ED
S1130EB0AFEFB3E00E944412A70196010E942012F2
S1130EC030938D0020938C0088E992E05ADBA82EA1
S1130ED088E992E056DB982F88278A299F938F937D
S1130EE08AE192E09F938F931F931F9288E18F93DF
S1130EF01F921F92DF93CF93ECD688E992E041DBF7
S1130F00282F30E0AFEFB3E00E944412A70196010E
S1130F100E94201230939D0020939C0088E992E067
S1130F2030DB99279F938F9389E292E09F938F936D
S1130F301F931F92BF921F921F92DF93CF93C9D624
S1130F408DB79EB781960FB6F8949EBF0FBE8DBF26
S1130F5088E992E016DB282F30E0AFEFB3E00E947F
S1130F604412A70196010E94201230932D01209370
S1130F702C0188E992E005DB99279F938F9380E306
S1130F8092E09F938F931F931F9280E28F931F92FF
S1130F900F93DF93CF939DD688E992E0F2DA082F7E
S1130FA088E992E0EEDA982F8827802B9F938F931D
S1130FB089E392E09F938F931F931F921F921F9236
S1130FC01F92DF93CF93C4D68EE392E09F938F93C7
S1130FD01F931F9284E08F931F9286E48F93DF9375
S1130FE0CF9377D688E992E0CCDA082F88E992E0AB
S1130FF0C8DA982F8827802B9F938F9381E492E0FF
S11310009F938F931F931F9280E18F931F921F9240
S1131010DF93CF935ED68DB79EB78A960FB6F894BA
S11310209EBF0FBE8DBF88E992E0ABDA88E992E0FB
S1131030A8DA88E992E0A5DAC82F18160CF041C0A6
S1131040833004F18250282F082E000C330B3F9379
S11310508F938DE492E09F938F9381E08F931F92FF
S113106080E28F931F921F928EE393E09F938F935E
S113107030D68DB79EB70B960FB6F8949EBF0FBEB1
S11310808DBFA1C0282F082E000C330B3F938F93E4
S113109087E592E09F938F9381E08F931F9280E284
S11310A08F931F921F928EE393E09F938F9311D699
S11310B08DB79EB70B960FB6F8949EBF0FBE8DBF2B
S11310C082C0811119C082E692E09F938F9381E0E0
S11310D08F931F9280E28F931F921F928EE393E06F
S11310E09F938F93F6D58DB79EB709960FB6F89454
S11310F09EBF0FBE8DBF34C08F3FC1F48BE692E01C
S11311009F938F931F921F9280E28F931F921F923F
S11311108EE393E09F938F93DCD58DB79EB70996AA
S11311200FB6F8949EBF0FBE8DBF34C08E3FC1F47E
S113113084E792E09F938F931F921F9280E28F9394
S11311401F921F928EE393E09F938F93C2D58DB726
S11311509EB709960FB6F8949EBF0FBE8DBF33C0DD
S1131160CD3FC1F48DE792E09F938F931F921F921E
S113117080E28F931F921F928EE393E09F938F934D
S1131180A8D58DB79EB709960FB6F8949EBF0FBE2B
S11311908DBF19C0CC3FB9F486E892E09F938F933A
S11311A01F921F9280E28F931F921F928EE393E00F
S11311B09F938F938ED58DB79EB709960FB6F894EB
S11311C09EBF0FBE8DBF88E992E0DBD9882314F45B
S11311D08E9A01C08E9886FF02C08D9A01C08D98A8
S11311E085FF02C0899A01C0899884FF02C08A9A47
S11311F001C08A9883FF02C08C9A01C08C9882FF38
S113120002C08B9A01C08B9881FF06C0E8E0F1E030
S113121020812860208305C0E8E0F1E02081277F59
S1131220208380FF02C0119A01C01198807399270E
S1131230892B11F0139A01C0139888E992E0A1D97F
S1131240882334F4E8E0F1E090819160908305C054
S1131250E8E0F1E090819E7F908386FF06C0E8E09D
S1131260F1E090819460908305C0E8E0F1E0908122
S11312709B7F908385FF02C05A9A01C05A9884FFCD
S113128006C0E8E0F1E090819260908305C0E8E058
S1131290F1E090819D7F908383FF06C0E2E0F1E05E
S11312A090819160908305C0E2E0F1E090819E7F9F
S11312B0908382FF06C0E8E0F1E090819061908322
S11312C005C0E8E0F1E090819F7E908381FF02C039
S11312D0109A01C0109880FF02C05B9A01C05B980D
S11312E088E992E04ED9882334F4E8E0F1E0908173
S11312F09068908305C0E8E0F1E090819F77908347
S113130086FF06C0E8E0F1E090819064908305C018
S1131310E8E0F1E090819F7B908385FF02C08F9A83
S113132001C08F9884FF06C0E2E0F1E090819260F2
S1131330908305C0E2E0F1E090819D7F908383FF7C
S113134002C0129A01C0129882FF06C0E8E0F1E0E0
S113135090819062908305C0E8E0F1E090819F7DE8
S1131360908381FF06C0E5E0F1E090819160908375
S113137005C0E5E0F1E090819E7F908380FF06C088
S1131380E5E0F1E080818260808305C0E5E0F1E082
S113139080818D7F8083DF91CF911F910F91FF908A
S11313A0EF90DF90CF90BF90AF900895789481B183
S11313B08F6081B984B1806E84B98AB18C608AB936
S11313C08DB1886F8DB980B38E6F80BBE1E0F1E0A1
S11313D080818B638083E4E0F1E08081836080839B
S11313E0E7E0F1E080818E6F8083EAE0F1E08081C4
S11313F08863808384B5836084BD85B5836085BD3F
S1131400EEE6F0E08081816080838BEA8093800047
S1131410809390008093A000809320018AE08093C1
S11314208100809391008093A10080932101109208
S11314308200109292001092A2001092220180E485
S113144080937C0010927B0087EE80937A00109248
S1131450C10026E040E950ED63E070E088E992E0E5
S113146050D98D9A8EE393E0D9D46CE38EE393E064
S1131470C0D48EE393E00BD460E08EE393E0A7D472
S1131480C0E1D0E0812C912C5401C501B4016CD78A
S11314906B017C01C501B401A1D520E030E040EC32
S11314A051E4FFD620E030E040EC51E433D501D6DE
S11314B02B013C0120E030E040EC51E4C701B601CF
S11314C0F0D620E030E048E252E424D5F2D5EE2410
S11314D0E39482019B0148E150E06AE270E08EE30C
S11314E093E088D18EE393E0D2D32BED3FE049EC37
S11314F05EE3C501B4010ED54B015C01219709F0EF
S1131500C4CF8FE892E09F938F931F921F9284E140
S11315108F931F928F938EE393E09F938F93D9D3EE
S11315208DB79EB709960FB6F8949EBF0FBE8DBFB8
S1131530C0E0D0E00F2EFCE8AF2EB12CF02D0F2E22
S1131540FCE2CF2EDD24D394F02D0F2EFCE9EF2EF8
S1131550F12CF02D0CEA10E0CE01BBD9CE01D2DA89
S1131560F501D183C083F601D183C083F701D18310
S1131570C083F801D183C0832196CF3FF3E0DF0716
S113158059F7899A8A9A8B9A8C9A8D9A8E9A8F9AFD
S1131590E8E0F1E0808181608083808182608083E3
S11315A08081846080838081886080838081806181
S11315B08083808180628083808180648083808155
S11315C080688083E5E0F1E08081826080838081AF
S11315D081608083E2E0F1E08081826080838081A9
S11315E0816080835B9A5A9A109A119A129A139A7C
S11315F02FE784E89EE1215080409040E1F700C04D
S11316000000CFEFD3E00F2EFCE8AF2EB12CF02D6D
S11316100F2EFCE2CF2EDD24D394F02D0F2EFCE907
S1131620EF2EF12CF02D0CEA10E0CE0152D9CE01B0
S113163069DAF501D183C083F601D183C083F70150
S1131640D183C083F801D183C083219771F789982E
S11316508A988B988C988D988E988F98E8E0F1E012
S113166080818E7F808380818D7F808380818B7F4A
S113167080838081877F808380818F7E8083808147
S11316808F7D808380818F7B808380818F7780832F
S1131690E5E0F1E080818D7F808380818E7F80838F
S11316A0E2E0F1E080818D7F808380818E7F808382
S11316B05B985A98109811981298139860E08EE3EA
S11316C093E085D31F921F9289E392E09F938F93B7
S11316D011E01F931F921F921F921F92CEE3D3E03B
S11316E0DF93CF9335D38EE392E09F938F931F9331
S11316F01F9284E08F931F9286E48F93DF93CF939E
S1131700E8D28D9AEDB7FEB774960FB6F894FEBF83
S11317100FBEEDBF5FDBFECF662331F0EBE0F1E0FF
S113172080818160808305C0EBE0F1E080818E7F61
S113173080834EBD00000DB407FEFDCF8EB5089525
S11317406435710508F055C04033510508F051C0A7
S1131750CA0187709078992324F40197886F9F6F4A
S11317600196222319F19A01552314F4295F3F4F5E
S113177035952795359527953595279594E5929F29
S1131780F001939FF00D11246E0F7F1FFB01E15CAC
S1131790FC4F21E030E0A90102C0440F551F8A9597
S11317A0E2F7CA019081892B808308959A01552319
S11317B014F4295F3F4F3595279535952795359531
S11317C0279594E5929FF001939FF00D11246E0FDD
S11317D07F1FFB01E15CFC4F21E030E0A90102C066
S11317E0440F551F8A95E2F7CA0180959081892399
S11317F0808308952F923F924F925F926F927F92CF
S11318008F929F92AF92BF92CF92DF92EF92FF920C
S11318100F931F93CF93DF9300D01F921F92CDB7E6
S1131820DEB79A8389836B015D834C831901280198
S1131830EB827801E41AF50A3901661A770AFF2067
S11318403CF4F194E194F10888248A94982C03C020
S113185088248394912C77203CF4719461947108CA
S1131860AA24AA94BA2C03C0AA24A394B12CEE0CE3
S1131870FF1C660C771C2B814C815D81B60189812C
S11318809A815EDFE614F7041CF5C30195958795EC
S11318908701081B190B2C143D0409F43DC01123C6
S11318A044F08C819D81880D991D9D838C8306193C
S11318B01709CA0CDB1C0E0D1F1D2B814C815D8189
S11318C0B60189819A813CDF2C143D0441F724C080
S11318D0C701959587958301081B190B8C819D8100
S11318E048165906C9F0112324F0CA0CDB1C0E1942
S11318F01F098C819D81880D991D9D838C83060D04
S1131900171D2B81AC01B60189819A8119DF8C8165
S11319109D814816590639F70F900F900F900F903C
S11319200F90DF91CF911F910F91FF90EF90DF9077
S1131930CF90BF90AF909F908F907F906F905F906B
S11319404F903F902F9008952F923F924F925F9225
S11319506F927F928F929F92AF92BF92CF92DF92BB
S1131960EF92FF920F931F93CF93DF934C01222E9C
S1131970332E70E0605271093B01660C771C660CD3
S1131980771C660D771DCB01865F9C4F3C015A0185
S11319902A0195E0490E511C11E01027F301C4906F
S11319A0E22CF32CC0E0D0E0D12CC6010C2E02C0F6
S11319B0959587950A94E2F780FF06C0202FA7012A
S11319C0B501C401BDDE05C0212FA701B501C401C5
S11319D0B7DE21962FEFE21AF20AC830D10529F7B3
S11319E08FEF681A780A9FEFA91AB90AA414B504EC
S11319F0A9F6DF91CF911F910F91FF90EF90DF90A7
S1131A00CF90BF90AF909F908F907F906F905F909A
S1131A104F903F902F9008952F923F924F925F9254
S1131A206F927F928F929F92AF92BF92CF92DF92EA
S1131A30EF92FF920F931F93CF93DF937C016A0180
S1131A405901202E662E772E81E0302E3826F301A0
S1131A5061913F01662329F1022D9501A601C70179
S1131A6073DF86010B5F1F4F2501F8E04F0E511CF9
S1131A70A414B5045CF44201E501232DAE01B801C0
S1131A80C7015EDE21968C169D06B9F7E6E0CE0E00
S1131A90D11CF0E5CF16D104D4F25201C12CD12CC3
S1131AA0D6CFDF91CF911F910F91FF90EF90DF90F0
S1131AB0CF90BF90AF909F908F907F906F905F90EA
S1131AC04F903F902F9008952F923F924F925F92A4
S1131AD06F927F928F929F92AF92BF92CF92DF923A
S1131AE0EF92FF920F931F93CF93DF9300D01F9237
S1131AF0CDB7DEB73C0129833A83862F90E08097E7
S1131B0064E1689F9001699F300D1124C9018E5FC3
S1131B109E4F2C016A011A019AE0290E311C882477
S1131B208394912C11E01027F201A590B490E980E0
S1131B30FA801C821B82C4010B8002C0880F991F8B
S1131B400A94E2F78A219B21892B31F0202FA701E7
S1131B50B601C301F5DD05C0212FA701B601C301FC
S1131B60EFDD8B819C8101969C838B839FEFE91A27
S1131B70F90A8B819C814097F1F692E0490E511C41
S1131B808FEFC81AD80AC214D30471F60F900F90BD
S1131B900F900F90DF91CF911F910F91FF90EF90D5
S1131BA0DF90CF90BF90AF909F908F907F906F9079
S1131BB05F904F903F902F9008952F923F924F92B5
S1131BC05F926F927F928F929F92AF92BF92CF92C9
S1131BD0DF92EF92FF920F931F93CF93DF937C01D9
S1131BE06A015901202E662E772E81E0302E382688
S1131BF0F30161913F01662329F1022D9501A601AC
S1131C00C70162DF8601065F1F4F2501F0E14F0E19
S1131C10511CA414B5045CF44201E501232DAE016A
S1131C20B801C7018DDD21968C169D06B9F7EBE04E
S1131C30CE0ED11CFBE4CF16D104D4F25201C12C38
S1131C40D12CD6CFDF91CF911F910F91FF90EF90C0
S1131C50DF90CF90BF90AF909F908F907F906F90C8
S1131C605F904F903F902F9008950F931F93CF93C1
S1131C708C01C42F462F406860E04EDD4C2F406439
S1131C8060E0C80149DDCF911F910F910895EF9253
S1131C90FF920F931F93CF93DF938C0140E050E0AA
S1131CA060E070E0E2DFCFE3D3E00F2EF7E3EF2E46
S1131CB0F5E0FF2EF02D499161E0C8012DDDCE1530
S1131CC0DF05C9F7DF91CF911F910F91FF90EF903E
S1131CD00895EF92FF920F93CF93DF93CDB7DEB7C2
S1131CE0EC970FB6F894DEBF0FBECDBF9E01225B0A
S1131CF03F4F2E964EAD5FAD2E976CE370E0CE0154
S1131D000196D1D37C012C960FAD2C972B962EAD3A
S1131D103FAD2B9729964EAD5FAD2997BE016F5FFE
S1131D207F4F27968EAD9FAD279776DE27968EAD93
S1131D309FAD2797ACDFC701EC960FB6F894DEBFD2
S1131D400FBECDBFDF91CF910F91FF90EF9008951B
S1131D50EF92FF920F93CF93DF93CDB7DEB7EC975B
S1131D600FB6F894DEBF0FBECDBF9E01225B3F4F7E
S1131D702E964EAD5FAD2E976CE370E0CE010196CA
S1131D8092D37C012C960FAD2C972B962EAD3FADA4
S1131D902B9729964EAD5FAD2997BE016F5F7F4F9C
S1131DA027968EAD9FAD279708DF27968EAD9FAD02
S1131DB027976DDFC701EC960FB6F894DEBF0FBE10
S1131DC0CDBFDF91CF910F91FF90EF900895AC01BB
S1131DD0EFE3F3E027E335E09FEF662311F0908310
S1131DE001C010823196E217F307B9F7CA014FCF49
S1131DF008951F93CF93DF93EC01162F41E260E027
S1131E008BDC412F406860E0CE0186DC40E260E07C
S1131E10CE0182DCDF91CF911F910895CF93DF93A0
S1131E20EC01EAE0F1E080818360808358D08CB5D6
S1131E30837F8CBD8CB58F7D8CBDEBE0F1E0808120
S1131E408D7F808380818260808341E260E0CE0167
S1131E5063DC40EB60E0CE015FDC44E060E0CE0197
S1131E605BDC44E160E0CE0157DC40E260E0CE019F
S1131E7053DC4CE060E0CE014FDCDF91CF9108955C
S1131E80CF92DF92EF92FF920F931F93CF93DF9342
S1131E9041155105C1F06A018C01E62EF72EC0E010
S1131EA0D0E0D7016D917D01D801ED91FC910190B5
S1131EB0F081E02DC8011995892B39F02196CC16B3
S1131EC0DD0679F702C0C0E0D0E0CE01DF91CF910A
S1131ED01F910F91FF90EF90DF90CF9008959FB7DF
S1131EE0F8948091370581110DC0289A84B18760D8
S1131EF084B98CB580618CBD8CB580648CBD84B193
S1131F00876084B9809137058F5F809337059FBFC1
S1131F1008955058BB27AA270ED078C141D130F07C
S1131F2046D120F031F49F3F11F41EF436C10EF473
S1131F30E095E7FB2CC1E92F8BD180F3BA17620738
S1131F4073078407950718F071F49EF5A3C10EF486
S1131F50E0950B2EBA2FA02D0B01B90190010C01B5
S1131F60CA01A0011124FF27591B99F0593F50F4CD
S1131F70503E68F11A16F040A22F232F342F442725
S1131F80585FF3CF469537952795A795F04053951D
S1131F90C9F77EF41F16BA0B620B730B840BBAF0ED
S1131FA09150A1F0FF0FBB1F661F771F881FC2F758
S1131FB00EC0BA0F621F731F841F48F4879577956C
S1131FC06795B795F7959E3F08F0B3CF9395880F23
S1131FD008F09927EE0F979587950895F0D0E3952B
S1131FE026C10CD013C1E3D040F0DAD030F021F494
S1131FF05F3F19F0CCC051114EC1CFC029D198F325
S11320009923C9F35523B1F3951B550BBB27AA2775
S113201062177307840738F09F5F5F4F220F331FE7
S1132020441FAA1FA9F333D00E2E3AF0E0E830D0B3
S113203091505040E695001CCAF729D0FE2F27D0B6
S1132040660F771F881FBB1F261737074807AB0784
S1132050B0E809F0BB0B802DBF01FF2793585F4FF9
S11320602AF09E3F510568F092C015C15F3FECF322
S1132070983EDCF3869577956795B795F7959F5FBE
S1132080C9F7880F911D9695879597F90895E1E012
S1132090660F771F881FBB1F621773078407BA0771
S11320A020F0621B730B840BBA0BEE1F88F7E095CC
S11320B0089504D06894B111EEC00895D1D088F089
S11320C09F5790F0B92F9927B751A0F0D1F0660F20
S11320D0771F881F991F1AF0BA95C9F712C0B1303B
S11320E081F0D8D0B1E00895D5C0672F782F882724
S11320F0B85F39F0B93FCCF3869577956795B3957A
S1132100D9F73EF490958095709561957F4F8F4FE8
S11321109F4F0895E89409C097FB3EF490958095ED
S1132120709561957F4F8F4F9F4F9923A9F0F92F99
S113213096E9BB279395F695879577956795B79517
S1132140F111F8CFFAF4BB0F11F460FF1BC06F5FFD
S11321507F4F8F4F9F4F16C0882311F096E911C00F
S1132160772321F09EE8872F762F05C0662371F030
S113217096E8862F70E060E02AF09A95660F771F44
S1132180881FDAF7880F9695879597F9089597F938
S11321909F6780E870E060E008959FEF80EC089509
S11321A000240A9416161706180609060895002432
S11321B00A9412161306140605060895EECF50D09D
S11321C0E8F3E894E0E0BB279F57F0F02AED3FE006
S11321D049EC06C0EE0FBB0F661F771F881F28F05F
S11321E0B23A62077307840728F0B25A620B730B82
S11321F0840BE3959A9572F7803830F49A95BB0F67
S1132200661F771F881FD2F79048B6C0092E039423
S1132210000C11F4882352F0BB0F40F4BF2B11F4CF
S113222060FF04C06F5F7F4F8F4F9F4F0895EF9300
S1132230E0FF06C0A2EA2AED3FE049EC5FEB7BDE5B
S1132240E5DF0F90039401FC9058E4EEF0E0A0C0A9
S113225057FD9058440F551F59F05F3F71F0479553
S1132260880F97FB991F61F09F3F79F08795089538
S1132270121613061406551FF2CF4695F1DF08C057
S1132280161617061806991FF1CF86957105610574
S113229008940895E894BB2766277727CB0197F91C
S11322A008950BD0B3CF7CDF28F081DF18F095239D
S11322B009F06DCF72CF1124EECFCADFA0F3959F42
S11322C0D1F3950F50E0551F629FF001729FBB2719
S11322D0F00DB11D639FAA27F00DB11DAA1F649FC5
S11322E06627B00DA11D661F829F2227B00DA11D78
S11322F0621F739FB00DA11D621F839FA00D611DFE
S1132300221F749F3327A00D611D231F849F600D1E
S1132310211D822F762F6A2F11249F5750408AF057
S1132320E1F088234AF0EE0FFF1FBB1F661F771FE3
S1132330881F91505040A9F79E3F510570F027CF58
S1132340AACF5F3FECF3983EDCF3869577956795CB
S1132350B795F795E7959F5FC1F7FE2B880F911D01
S11323609695879597F908959F9329DF0F9007FC19
S1132370EE5F5DCF9F3F31F0915020F487957795C4
S11323806795B795880F911D9695879597F9089548
S11323909F938F937F936F93FF93EF939B01AC0174
S11323A080DFEF91FF9105D02F913F914F915F9185
S11323B078CFDF93CF931F930F93FF92EF92DF9227
S11323C07B018C01689405C0DA2EEF0176DFFE01F3
S11323D0E894A5912591359145915591AEF3EF017E
S11323E0AADDFE019701A801DA9479F7DF90EF9056
S11323F0FF900F911F91CF91DF910895A1E21A2EC2
S1132400AA1BBB1BFD010DC0AA1FBB1FEE1FFF1F94
S1132410A217B307E407F50720F0A21BB30BE40BE4
S1132420F50B661F771F881F991F1A9469F760952B
S11324307095809590959B01AC01BD01CF010895E5
S1132440052E97FB16F400940FD057FD05D0D6DF68
S113245007FC02D046F408C050954095309521956C
S11324603F4F4F4F5F4F08959095809570956195BC
S11324707F4F8F4F9F4F0895EE0FFF1F881F8BBF15
S11324800790F691E02D1994A29FB001B39FC0016B
S1132490A39F700D811D1124911DB29F700D811D8C
S11324A01124911D08950F931F93CF93DF93CDB7FC
S11324B0DEB72E970FB6F894DEBF0FBECDBF8C01EA
S11324C0FA0186E08C831A83098377FF02C060E0F7
S11324D070E8CB0101979E838D83A901BF01CE01D2
S11324E0019619D04D815E8157FD0AC02F81388530
S11324F0421753070CF49A01F801E20FF31F1082FC
S11325002E960FB6F894DEBF0FBECDBFDF91CF91EC
S11325101F910F9108952F923F924F925F926F9265
S11325207F928F929F92AF92BF92CF92DF92EF925F
S1132530FF920F931F93CF93DF93CDB7DEB72B9703
S11325400FB6F894DEBF0FBECDBF6C017B018A01CC
S1132550FC0117821682838181FFBFC1CE010196DF
S11325603C01F6019381F70193FD859193FF8191DD
S11325707F01882309F4ADC1853239F493FD859137
S113258093FF81917F01853221F4B60190E0D6D189
S1132590E8CF912C212C312CFFE1F315D8F08B32AC
S11325A079F038F4803279F08332A1F4232D20615C
S11325B01DC08D3261F0803369F4232D216016C073
S11325C0832D8260382EE32DE4603E2E2AC0F32D45
S11325D0F8601DC037FC2DC020ED280F2A3040F0D4
S11325E08E32B9F436FC75C1232D2064322E19C005
S11325F036FE06C08AE0989E200D1124922E11C04A
S1132600EAE02E9E200D1124222EF32DF0623F2E9F
S113261008C08C3621F4832D8068382E02C0883699
S113262041F4F70193FD859193FF81917F0181111D
S1132630B3CF982F9F7D9554933028F40C5F1F4F90
S11326409FE399830DC0833631F0833771F083356E
S113265009F055C020C0F801808189830E5F1F4FA7
S113266088248394912C530112C02801F2E04F0E68
S1132670511CF801A080B18036FE03C0692D70E0C2
S113268002C06FEF7FEFC5014ED14C018201F32DE3
S1132690FF773F2E15C0280122E0420E511CF8019D
S11326A0A080B18036FE03C0692D70E002C06FEFD8
S11326B07FEFC5012DD14C01F32DF0683F2E82012F
S11326C033FC19C0822D90E088169906A0F4B60157
S11326D080E290E033D12A94F5CFF50137FC85915F
S11326E037FE81915F01B60190E028D121102A9430
S11326F021E0821A91088114910479F7E1C08436AB
S113270011F0893639F5F80137FE07C0608171810F
S1132710828193810C5F1F4F08C060817181072EF5
S1132720000C880B990B0E5F1F4FF32DFF763F2E85
S113273097FF09C090958095709561957F4F8F4F55
S11327409F4FF0683F2E2AE030E0A30133D1882E5A
S1132750861844C0853731F4232D2F7EB22E2AE00B
S113276030E025C0932D997FB92E8F36C1F018F42F
S1132770883579F0AEC0803719F0883721F0A9C0C8
S1132780E92FE061BE2EB4FE0DC0FB2DF460BF2E18
S113279009C034FE0AC0292F2660B22E06C028E0E4
S11327A030E005C020E130E002C020E132E0F80171
S11327B0B7FE07C060817181828193810C5F1F4FD6
S11327C006C06081718180E090E00E5F1F4FA3011D
S11327D0F1D0882E8618FB2DFF773F2E36FE0DC0D4
S11327E0232D2E7FA22E891458F434FE0BC032FC04
S11327F009C0832D8E7EA82E05C0B82CA32C03C03F
S1132800B82C01C0B92CA4FE0FC0FE01E80DF11DC7
S11328108081803321F49A2D997EA92E09C0A2FECD
S113282006C0B394B39404C08A2D867809F0B39497
S1132830A3FC10C0A0FE06C0B21480F4280C922C95
S11328409B180DC0B21458F4B60180E290E076D023
S1132850B394F8CFB21418F42B1802C0982C212C7E
S1132860A4FE0FC0B60180E390E068D0A2FE16C0BB
S1132870A1FC03C088E790E002C088E590E0B601BF
S11328800CC08A2D867851F0A1FE02C08BE201C0F3
S113289080E2A7FC8DE2B60190E050D0891430F4B8
S11328A0B60180E390E04AD09A94F8CF8A94F30179
S11328B0E80DF11D8081B60190E040D08110F6CF83
S11328C0222009F44ECEB60180E290E037D02A945B
S11328D0F7CFF6018681978102C08FEF9FEF2B9689
S11328E00FB6F894DEBF0FBECDBFDF91CF911F911D
S11328F00F91FF90EF90DF90CF90BF90AF909F909B
S11329008F907F906F905F904F903F902F9008959D
S1132910FC010590615070400110D8F780959095A6
S11329208E0F9F1F0895FC016150704001900110AB
S1132930D8F7809590958E0F9F1F08950F931F933E
S1132940CF93DF93FB01238121FD03C08FEF9FEF22
S11329502CC022FF16C0468157812481358142173D
S1132960530744F4A081B1819D012F5F3F4F318310
S113297020838C93268137812F5F3F4F37832683B3
S113298014C08B01EC01FB010084F185E02D199545
S1132990892BE1F6D80116968D919C911797019693
S11329A017969C938E931697CE01DF91CF911F912A
S11329B00F910895FA01AA27283051F1203181F1AD
S11329C0E8946F936E7F6E5F7F4F8F4F9F4FAF4F33
S11329D0B1E03ED0B4E03CD0670F781F891F9A1F46
S11329E0A11D680F791F8A1F911DA11D6A0F711DFA
S11329F0811D911DA11D20D009F468943F912AE006
S1132A00269F11243019305D3193DEF6CF010895ED
S1132A10462F4770405D4193B3E00FD0C9F7F6CF1E
S1132A20462F4F70405D4A3318F0495D31FD4052E6
S1132A30419302D0A9F7EACFB4E0A695979587957C
S1132A4077956795BA95C9F700976105710508955B
S1132A509B01AC010A2E0694579547953795279507
S1132A60BA95C9F7620F731F841F951FA01D08959F
S1072A70F894FFCF04
S1132A74000000003403400FD5021103A702C10271
S1132A84B302426B2025336443004164426C756590
S1132A9420253364206C7473004F20253364430071
S1132AA425303264205644430025303664004B4DAF
S1132AB40044544520253464204B4D20004765616F
S1132AC472202532642000476561722043253164F5
S1132AD4200047656172204E202000476561722002
S1132AE452312000476561722052322000476561EB
S1132AF472205233200047656172205234200054FE
S10B2B04455354494E470000FB
S9030000FC
